{
  "_format": "hh-sol-artifact-1",
  "contractName": "MyEpicGame",
  "sourceName": "contracts/MyEpicGame.sol",
  "abi": [
    {
      "inputs": [
        {
          "internalType": "string[]",
          "name": "characterNames",
          "type": "string[]"
        },
        {
          "internalType": "string[]",
          "name": "characterImagesURIs",
          "type": "string[]"
        },
        {
          "internalType": "uint256[]",
          "name": "characterHp",
          "type": "uint256[]"
        },
        {
          "internalType": "uint256[]",
          "name": "characterAttackDmg",
          "type": "uint256[]"
        },
        {
          "internalType": "string",
          "name": "bossName",
          "type": "string"
        },
        {
          "internalType": "string",
          "name": "bossImageURI",
          "type": "string"
        },
        {
          "internalType": "uint256",
          "name": "bossHp",
          "type": "uint256"
        },
        {
          "internalType": "uint256",
          "name": "bossAttackDamage",
          "type": "uint256"
        }
      ],
      "stateMutability": "nonpayable",
      "type": "constructor"
    },
    {
      "anonymous": false,
      "inputs": [
        {
          "indexed": true,
          "internalType": "address",
          "name": "owner",
          "type": "address"
        },
        {
          "indexed": true,
          "internalType": "address",
          "name": "approved",
          "type": "address"
        },
        {
          "indexed": true,
          "internalType": "uint256",
          "name": "tokenId",
          "type": "uint256"
        }
      ],
      "name": "Approval",
      "type": "event"
    },
    {
      "anonymous": false,
      "inputs": [
        {
          "indexed": true,
          "internalType": "address",
          "name": "owner",
          "type": "address"
        },
        {
          "indexed": true,
          "internalType": "address",
          "name": "operator",
          "type": "address"
        },
        {
          "indexed": false,
          "internalType": "bool",
          "name": "approved",
          "type": "bool"
        }
      ],
      "name": "ApprovalForAll",
      "type": "event"
    },
    {
      "anonymous": false,
      "inputs": [
        {
          "indexed": false,
          "internalType": "uint256",
          "name": "newBossHp",
          "type": "uint256"
        },
        {
          "indexed": false,
          "internalType": "uint256",
          "name": "newPlayerHp",
          "type": "uint256"
        }
      ],
      "name": "AttackComplete",
      "type": "event"
    },
    {
      "anonymous": false,
      "inputs": [
        {
          "indexed": false,
          "internalType": "address",
          "name": "sender",
          "type": "address"
        },
        {
          "indexed": false,
          "internalType": "uint256",
          "name": "tokenId",
          "type": "uint256"
        }
      ],
      "name": "BossMissAttack",
      "type": "event"
    },
    {
      "anonymous": false,
      "inputs": [
        {
          "indexed": false,
          "internalType": "address",
          "name": "sender",
          "type": "address"
        },
        {
          "indexed": false,
          "internalType": "uint256",
          "name": "tokenId",
          "type": "uint256"
        },
        {
          "indexed": false,
          "internalType": "uint256",
          "name": "characterIndex",
          "type": "uint256"
        }
      ],
      "name": "CharacterNFTMinted",
      "type": "event"
    },
    {
      "anonymous": false,
      "inputs": [
        {
          "indexed": false,
          "internalType": "address",
          "name": "sender",
          "type": "address"
        },
        {
          "indexed": false,
          "internalType": "uint256",
          "name": "tokenId",
          "type": "uint256"
        },
        {
          "indexed": false,
          "internalType": "uint256",
          "name": "newHp",
          "type": "uint256"
        }
      ],
      "name": "CharacterRevived",
      "type": "event"
    },
    {
      "anonymous": false,
      "inputs": [
        {
          "indexed": false,
          "internalType": "address",
          "name": "sender",
          "type": "address"
        },
        {
          "indexed": false,
          "internalType": "uint256",
          "name": "tokenId",
          "type": "uint256"
        }
      ],
      "name": "HeroCriticalHit",
      "type": "event"
    },
    {
      "anonymous": false,
      "inputs": [
        {
          "indexed": true,
          "internalType": "address",
          "name": "from",
          "type": "address"
        },
        {
          "indexed": true,
          "internalType": "address",
          "name": "to",
          "type": "address"
        },
        {
          "indexed": true,
          "internalType": "uint256",
          "name": "tokenId",
          "type": "uint256"
        }
      ],
      "name": "Transfer",
      "type": "event"
    },
    {
      "inputs": [
        {
          "internalType": "address",
          "name": "to",
          "type": "address"
        },
        {
          "internalType": "uint256",
          "name": "tokenId",
          "type": "uint256"
        }
      ],
      "name": "approve",
      "outputs": [],
      "stateMutability": "nonpayable",
      "type": "function"
    },
    {
      "inputs": [],
      "name": "attackBoss",
      "outputs": [],
      "stateMutability": "nonpayable",
      "type": "function"
    },
    {
      "inputs": [
        {
          "internalType": "address",
          "name": "owner",
          "type": "address"
        }
      ],
      "name": "balanceOf",
      "outputs": [
        {
          "internalType": "uint256",
          "name": "",
          "type": "uint256"
        }
      ],
      "stateMutability": "view",
      "type": "function"
    },
    {
      "inputs": [],
      "name": "bigBoss",
      "outputs": [
        {
          "internalType": "string",
          "name": "name",
          "type": "string"
        },
        {
          "internalType": "string",
          "name": "imageURI",
          "type": "string"
        },
        {
          "internalType": "uint256",
          "name": "hp",
          "type": "uint256"
        },
        {
          "internalType": "uint256",
          "name": "maxHp",
          "type": "uint256"
        },
        {
          "internalType": "uint256",
          "name": "attackDamage",
          "type": "uint256"
        }
      ],
      "stateMutability": "view",
      "type": "function"
    },
    {
      "inputs": [],
      "name": "checkIfUserHasNFT",
      "outputs": [
        {
          "components": [
            {
              "internalType": "uint256",
              "name": "characterIndex",
              "type": "uint256"
            },
            {
              "internalType": "string",
              "name": "name",
              "type": "string"
            },
            {
              "internalType": "string",
              "name": "imageURI",
              "type": "string"
            },
            {
              "internalType": "uint256",
              "name": "hp",
              "type": "uint256"
            },
            {
              "internalType": "uint256",
              "name": "maxHp",
              "type": "uint256"
            },
            {
              "internalType": "uint256",
              "name": "attackDamage",
              "type": "uint256"
            },
            {
              "internalType": "bool",
              "name": "revived",
              "type": "bool"
            }
          ],
          "internalType": "struct HeroAttributes",
          "name": "",
          "type": "tuple"
        }
      ],
      "stateMutability": "view",
      "type": "function"
    },
    {
      "inputs": [],
      "name": "getAllDefaultCharacters",
      "outputs": [
        {
          "components": [
            {
              "internalType": "uint256",
              "name": "characterIndex",
              "type": "uint256"
            },
            {
              "internalType": "string",
              "name": "name",
              "type": "string"
            },
            {
              "internalType": "string",
              "name": "imageURI",
              "type": "string"
            },
            {
              "internalType": "uint256",
              "name": "hp",
              "type": "uint256"
            },
            {
              "internalType": "uint256",
              "name": "maxHp",
              "type": "uint256"
            },
            {
              "internalType": "uint256",
              "name": "attackDamage",
              "type": "uint256"
            },
            {
              "internalType": "bool",
              "name": "revived",
              "type": "bool"
            }
          ],
          "internalType": "struct HeroAttributes[]",
          "name": "",
          "type": "tuple[]"
        }
      ],
      "stateMutability": "view",
      "type": "function"
    },
    {
      "inputs": [],
      "name": "getAllPlayer",
      "outputs": [
        {
          "components": [
            {
              "internalType": "address",
              "name": "user",
              "type": "address"
            },
            {
              "components": [
                {
                  "internalType": "uint256",
                  "name": "characterIndex",
                  "type": "uint256"
                },
                {
                  "internalType": "string",
                  "name": "name",
                  "type": "string"
                },
                {
                  "internalType": "string",
                  "name": "imageURI",
                  "type": "string"
                },
                {
                  "internalType": "uint256",
                  "name": "hp",
                  "type": "uint256"
                },
                {
                  "internalType": "uint256",
                  "name": "maxHp",
                  "type": "uint256"
                },
                {
                  "internalType": "uint256",
                  "name": "attackDamage",
                  "type": "uint256"
                },
                {
                  "internalType": "bool",
                  "name": "revived",
                  "type": "bool"
                }
              ],
              "internalType": "struct HeroAttributes",
              "name": "hero",
              "type": "tuple"
            }
          ],
          "internalType": "struct Player[]",
          "name": "",
          "type": "tuple[]"
        }
      ],
      "stateMutability": "view",
      "type": "function"
    },
    {
      "inputs": [
        {
          "internalType": "uint256",
          "name": "tokenId",
          "type": "uint256"
        }
      ],
      "name": "getApproved",
      "outputs": [
        {
          "internalType": "address",
          "name": "",
          "type": "address"
        }
      ],
      "stateMutability": "view",
      "type": "function"
    },
    {
      "inputs": [],
      "name": "getBigBoss",
      "outputs": [
        {
          "components": [
            {
              "internalType": "string",
              "name": "name",
              "type": "string"
            },
            {
              "internalType": "string",
              "name": "imageURI",
              "type": "string"
            },
            {
              "internalType": "uint256",
              "name": "hp",
              "type": "uint256"
            },
            {
              "internalType": "uint256",
              "name": "maxHp",
              "type": "uint256"
            },
            {
              "internalType": "uint256",
              "name": "attackDamage",
              "type": "uint256"
            }
          ],
          "internalType": "struct Enemy",
          "name": "",
          "type": "tuple"
        }
      ],
      "stateMutability": "view",
      "type": "function"
    },
    {
      "inputs": [
        {
          "internalType": "address",
          "name": "owner",
          "type": "address"
        },
        {
          "internalType": "address",
          "name": "operator",
          "type": "address"
        }
      ],
      "name": "isApprovedForAll",
      "outputs": [
        {
          "internalType": "bool",
          "name": "",
          "type": "bool"
        }
      ],
      "stateMutability": "view",
      "type": "function"
    },
    {
      "inputs": [
        {
          "internalType": "uint256",
          "name": "_characterIndex",
          "type": "uint256"
        }
      ],
      "name": "mintCharacterNFT",
      "outputs": [],
      "stateMutability": "nonpayable",
      "type": "function"
    },
    {
      "inputs": [],
      "name": "name",
      "outputs": [
        {
          "internalType": "string",
          "name": "",
          "type": "string"
        }
      ],
      "stateMutability": "view",
      "type": "function"
    },
    {
      "inputs": [
        {
          "internalType": "uint256",
          "name": "",
          "type": "uint256"
        }
      ],
      "name": "nftHolderAttributes",
      "outputs": [
        {
          "internalType": "uint256",
          "name": "characterIndex",
          "type": "uint256"
        },
        {
          "internalType": "string",
          "name": "name",
          "type": "string"
        },
        {
          "internalType": "string",
          "name": "imageURI",
          "type": "string"
        },
        {
          "internalType": "uint256",
          "name": "hp",
          "type": "uint256"
        },
        {
          "internalType": "uint256",
          "name": "maxHp",
          "type": "uint256"
        },
        {
          "internalType": "uint256",
          "name": "attackDamage",
          "type": "uint256"
        },
        {
          "internalType": "bool",
          "name": "revived",
          "type": "bool"
        }
      ],
      "stateMutability": "view",
      "type": "function"
    },
    {
      "inputs": [
        {
          "internalType": "uint256",
          "name": "tokenId",
          "type": "uint256"
        }
      ],
      "name": "ownerOf",
      "outputs": [
        {
          "internalType": "address",
          "name": "",
          "type": "address"
        }
      ],
      "stateMutability": "view",
      "type": "function"
    },
    {
      "inputs": [
        {
          "internalType": "address",
          "name": "from",
          "type": "address"
        },
        {
          "internalType": "address",
          "name": "to",
          "type": "address"
        },
        {
          "internalType": "uint256",
          "name": "tokenId",
          "type": "uint256"
        }
      ],
      "name": "safeTransferFrom",
      "outputs": [],
      "stateMutability": "nonpayable",
      "type": "function"
    },
    {
      "inputs": [
        {
          "internalType": "address",
          "name": "from",
          "type": "address"
        },
        {
          "internalType": "address",
          "name": "to",
          "type": "address"
        },
        {
          "internalType": "uint256",
          "name": "tokenId",
          "type": "uint256"
        },
        {
          "internalType": "bytes",
          "name": "_data",
          "type": "bytes"
        }
      ],
      "name": "safeTransferFrom",
      "outputs": [],
      "stateMutability": "nonpayable",
      "type": "function"
    },
    {
      "inputs": [
        {
          "internalType": "address",
          "name": "operator",
          "type": "address"
        },
        {
          "internalType": "bool",
          "name": "approved",
          "type": "bool"
        }
      ],
      "name": "setApprovalForAll",
      "outputs": [],
      "stateMutability": "nonpayable",
      "type": "function"
    },
    {
      "inputs": [
        {
          "internalType": "bytes4",
          "name": "interfaceId",
          "type": "bytes4"
        }
      ],
      "name": "supportsInterface",
      "outputs": [
        {
          "internalType": "bool",
          "name": "",
          "type": "bool"
        }
      ],
      "stateMutability": "view",
      "type": "function"
    },
    {
      "inputs": [],
      "name": "symbol",
      "outputs": [
        {
          "internalType": "string",
          "name": "",
          "type": "string"
        }
      ],
      "stateMutability": "view",
      "type": "function"
    },
    {
      "inputs": [],
      "name": "toRevive",
      "outputs": [],
      "stateMutability": "nonpayable",
      "type": "function"
    },
    {
      "inputs": [
        {
          "internalType": "uint256",
          "name": "_tokenId",
          "type": "uint256"
        }
      ],
      "name": "tokenURI",
      "outputs": [
        {
          "internalType": "string",
          "name": "",
          "type": "string"
        }
      ],
      "stateMutability": "view",
      "type": "function"
    },
    {
      "inputs": [
        {
          "internalType": "address",
          "name": "from",
          "type": "address"
        },
        {
          "internalType": "address",
          "name": "to",
          "type": "address"
        },
        {
          "internalType": "uint256",
          "name": "tokenId",
          "type": "uint256"
        }
      ],
      "name": "transferFrom",
      "outputs": [],
      "stateMutability": "nonpayable",
      "type": "function"
    }
  ],
  "bytecode": "0x60806040523480156200001157600080fd5b506040516200671e3803806200671e833981810160405281019062000037919062000b8f565b6040518060400160405280601681526020017f47616d65206f66205468726f6e6573204865726f6573000000000000000000008152506040518060400160405280600781526020017f474f544845524f000000000000000000000000000000000000000000000000008152508160009080519060200190620000bb9291906200089e565b508060019080519060200190620000d49291906200089e565b505050620000eb84848484620001f060201b60201c565b600960008201518160000190805190602001906200010b9291906200089e565b5060208201518160010190805190602001906200012a9291906200089e565b5060408201518160020155606082015181600301556080820151816004015590505062000160888888886200022b60201b60201c565b620001776007620005ba60201b62001f751760201c565b620001956000806010620005d060201b62001f8b179092919060201c565b610ad3600e60006101000a81548167ffffffffffffffff021916908367ffffffffffffffff16021790555060644442620001d0919062000e9f565b620001dc919062000fa8565b600f8190555050505050505050506200110f565b620001fa6200092f565b6040518060a00160405280868152602001858152602001848152602001848152602001838152509050949350505050565b60005b8451811015620005b35760066040518060e001604052808381526020018784815181106200026157620002606200106d565b5b602002602001015181526020018684815181106200028457620002836200106d565b5b60200260200101518152602001858481518110620002a757620002a66200106d565b5b60200260200101518152602001858481518110620002ca57620002c96200106d565b5b60200260200101518152602001848481518110620002ed57620002ec6200106d565b5b60200260200101518152602001600015158152509080600181540180825580915050600190039060005260206000209060070201600090919091909150600082015181600001556020820151816001019080519060200190620003529291906200089e565b506040820151816002019080519060200190620003719291906200089e565b50606082015181600301556080820151816004015560a0820151816005015560c08201518160060160006101000a81548160ff0219169083151502179055505050600060068281548110620003cb57620003ca6200106d565b5b90600052602060002090600702016040518060e001604052908160008201548152602001600182018054620004009062000f3c565b80601f01602080910402602001604051908101604052809291908181526020018280546200042e9062000f3c565b80156200047f5780601f1062000453576101008083540402835291602001916200047f565b820191906000526020600020905b8154815290600101906020018083116200046157829003601f168201915b505050505081526020016002820180546200049a9062000f3c565b80601f0160208091040260200160405190810160405280929190818152602001828054620004c89062000f3c565b8015620005195780601f10620004ed5761010080835404028352916020019162000519565b820191906000526020600020905b815481529060010190602001808311620004fb57829003601f168201915b505050505081526020016003820154815260200160048201548152602001600582015481526020016006820160009054906101000a900460ff16151515158152505090506200059b604051806060016040528060258152602001620066f960259139826020015183606001518460400151620007c960201b620021821760201c565b50600181620005ab919062000e9f565b90506200022e565b5050505050565b6001816000016000828254019250508190555050565b8260030160008373ffffffffffffffffffffffffffffffffffffffff1673ffffffffffffffffffffffffffffffffffffffff16815260200190815260200160002060009054906101000a900460ff16156200067157808360010160008473ffffffffffffffffffffffffffffffffffffffff1673ffffffffffffffffffffffffffffffffffffffff16815260200190815260200160002081905550620007c4565b60018360030160008473ffffffffffffffffffffffffffffffffffffffff1673ffffffffffffffffffffffffffffffffffffffff16815260200190815260200160002060006101000a81548160ff021916908315150217905550808360010160008473ffffffffffffffffffffffffffffffffffffffff1673ffffffffffffffffffffffffffffffffffffffff1681526020019081526020016000208190555082600001805490508360020160008473ffffffffffffffffffffffffffffffffffffffff1673ffffffffffffffffffffffffffffffffffffffff1681526020019081526020016000208190555082600001829080600181540180825580915050600190039060005260206000200160009091909190916101000a81548173ffffffffffffffffffffffffffffffffffffffff021916908373ffffffffffffffffffffffffffffffffffffffff1602179055505b505050565b6200086f84848484604051602401620007e6949392919062000d64565b6040516020818303038152906040527f8d142cdd000000000000000000000000000000000000000000000000000000007bffffffffffffffffffffffffffffffffffffffffffffffffffffffff19166020820180517bffffffffffffffffffffffffffffffffffffffffffffffffffffffff83818316178352505050506200087560201b60201c565b50505050565b60008151905060006a636f6e736f6c652e6c6f679050602083016000808483855afa5050505050565b828054620008ac9062000f3c565b90600052602060002090601f016020900481019282620008d057600085556200091c565b82601f10620008eb57805160ff19168380011785556200091c565b828001600101855582156200091c579182015b828111156200091b578251825591602001919060010190620008fe565b5b5090506200092b91906200095e565b5090565b6040518060a0016040528060608152602001606081526020016000815260200160008152602001600081525090565b5b80821115620009795760008160009055506001016200095f565b5090565b6000620009946200098e8462000def565b62000dc6565b90508083825260208201905082856020860282011115620009ba57620009b9620010d0565b5b60005b8581101562000a0f57815167ffffffffffffffff811115620009e457620009e3620010cb565b5b808601620009f3898262000b45565b85526020850194506020840193505050600181019050620009bd565b5050509392505050565b600062000a3062000a2a8462000e1e565b62000dc6565b9050808382526020820190508285602086028201111562000a565762000a55620010d0565b5b60005b8581101562000a8a578162000a6f888262000b78565b84526020840193506020830192505060018101905062000a59565b5050509392505050565b600062000aab62000aa58462000e4d565b62000dc6565b90508281526020810184848401111562000aca5762000ac9620010d5565b5b62000ad784828562000f06565b509392505050565b600082601f83011262000af75762000af6620010cb565b5b815162000b098482602086016200097d565b91505092915050565b600082601f83011262000b2a5762000b29620010cb565b5b815162000b3c84826020860162000a19565b91505092915050565b600082601f83011262000b5d5762000b5c620010cb565b5b815162000b6f84826020860162000a94565b91505092915050565b60008151905062000b8981620010f5565b92915050565b600080600080600080600080610100898b03121562000bb35762000bb2620010df565b5b600089015167ffffffffffffffff81111562000bd45762000bd3620010da565b5b62000be28b828c0162000adf565b985050602089015167ffffffffffffffff81111562000c065762000c05620010da565b5b62000c148b828c0162000adf565b975050604089015167ffffffffffffffff81111562000c385762000c37620010da565b5b62000c468b828c0162000b12565b965050606089015167ffffffffffffffff81111562000c6a5762000c69620010da565b5b62000c788b828c0162000b12565b955050608089015167ffffffffffffffff81111562000c9c5762000c9b620010da565b5b62000caa8b828c0162000b45565b94505060a089015167ffffffffffffffff81111562000cce5762000ccd620010da565b5b62000cdc8b828c0162000b45565b93505060c062000cef8b828c0162000b78565b92505060e062000d028b828c0162000b78565b9150509295985092959890939650565b600062000d1f8262000e83565b62000d2b818562000e8e565b935062000d3d81856020860162000f06565b62000d4881620010e4565b840191505092915050565b62000d5e8162000efc565b82525050565b6000608082019050818103600083015262000d80818762000d12565b9050818103602083015262000d96818662000d12565b905062000da7604083018562000d53565b818103606083015262000dbb818462000d12565b905095945050505050565b600062000dd262000de5565b905062000de0828262000f72565b919050565b6000604051905090565b600067ffffffffffffffff82111562000e0d5762000e0c6200109c565b5b602082029050602081019050919050565b600067ffffffffffffffff82111562000e3c5762000e3b6200109c565b5b602082029050602081019050919050565b600067ffffffffffffffff82111562000e6b5762000e6a6200109c565b5b62000e7682620010e4565b9050602081019050919050565b600081519050919050565b600082825260208201905092915050565b600062000eac8262000efc565b915062000eb98362000efc565b9250827fffffffffffffffffffffffffffffffffffffffffffffffffffffffffffffffff0382111562000ef15762000ef062000fe0565b5b828201905092915050565b6000819050919050565b60005b8381101562000f2657808201518184015260208101905062000f09565b8381111562000f36576000848401525b50505050565b6000600282049050600182168062000f5557607f821691505b6020821081141562000f6c5762000f6b6200103e565b5b50919050565b62000f7d82620010e4565b810181811067ffffffffffffffff8211171562000f9f5762000f9e6200109c565b5b80604052505050565b600062000fb58262000efc565b915062000fc28362000efc565b92508262000fd55762000fd46200100f565b5b828206905092915050565b7f4e487b7100000000000000000000000000000000000000000000000000000000600052601160045260246000fd5b7f4e487b7100000000000000000000000000000000000000000000000000000000600052601260045260246000fd5b7f4e487b7100000000000000000000000000000000000000000000000000000000600052602260045260246000fd5b7f4e487b7100000000000000000000000000000000000000000000000000000000600052603260045260246000fd5b7f4e487b7100000000000000000000000000000000000000000000000000000000600052604160045260246000fd5b600080fd5b600080fd5b600080fd5b600080fd5b600080fd5b6000601f19601f8301169050919050565b620011008162000efc565b81146200110c57600080fd5b50565b6155da806200111f6000396000f3fe608060405234801561001057600080fd5b50600436106101425760003560e01c806398da4c95116100b8578063bdc547b61161007c578063bdc547b614610381578063c87b56dd1461038b578063c8cf27f4146103bb578063d4f24c5b146103d9578063e985e9c5146103e3578063f8b81ef71461041357610142565b806398da4c95146102d3578063a22cb46514610309578063a9c3267914610325578063b88d4fde14610347578063b953084e1461036357610142565b806319ac547b1161010a57806319ac547b146101ff57806323b872dd1461021d57806342842e0e146102395780636352211e1461025557806370a082311461028557806395d89b41146102b557610142565b806301ffc9a7146101475780630665f9611461017757806306fdde0314610195578063081812fc146101b3578063095ea7b3146101e3575b600080fd5b610161600480360381019061015c919061394c565b61042f565b60405161016e9190614393565b60405180910390f35b61017f610511565b60405161018c919061476c565b60405180910390f35b61019d61066d565b6040516101aa91906143ae565b60405180910390f35b6101cd60048036038101906101c891906139a6565b6106ff565b6040516101da9190614288565b60405180910390f35b6101fd60048036038101906101f8919061390c565b610784565b005b61020761089c565b6040516102149190614371565b60405180910390f35b610237600480360381019061023291906137f6565b610b43565b005b610253600480360381019061024e91906137f6565b610ba3565b005b61026f600480360381019061026a91906139a6565b610bc3565b60405161027c9190614288565b60405180910390f35b61029f600480360381019061029a9190613789565b610c75565b6040516102ac91906147b0565b60405180910390f35b6102bd610d2d565b6040516102ca91906143ae565b60405180910390f35b6102ed60048036038101906102e891906139a6565b610dbf565b60405161030097969594939291906147cb565b60405180910390f35b610323600480360381019061031e91906138cc565b610f1e565b005b61032d610f34565b60405161033e95949392919061447d565b60405180910390f35b610361600480360381019061035c9190613849565b611068565b005b61036b6110ca565b604051610378919061434f565b60405180910390f35b610389611290565b005b6103a560048036038101906103a091906139a6565b611443565b6040516103b291906143ae565b60405180910390f35b6103c36116fb565b6040516103d0919061478e565b60405180910390f35b6103e16118c2565b005b6103fd60048036038101906103f891906137b6565b611da5565b60405161040a9190614393565b60405180910390f35b61042d600480360381019061042891906139a6565b611e39565b005b60007f80ac58cd000000000000000000000000000000000000000000000000000000007bffffffffffffffffffffffffffffffffffffffffffffffffffffffff1916827bffffffffffffffffffffffffffffffffffffffffffffffffffffffff191614806104fa57507f5b5e139f000000000000000000000000000000000000000000000000000000007bffffffffffffffffffffffffffffffffffffffffffffffffffffffff1916827bffffffffffffffffffffffffffffffffffffffffffffffffffffffff1916145b8061050a575061050982612224565b5b9050919050565b610519613569565b60096040518060a001604052908160008201805461053690614b58565b80601f016020809104026020016040519081016040528092919081815260200182805461056290614b58565b80156105af5780601f10610584576101008083540402835291602001916105af565b820191906000526020600020905b81548152906001019060200180831161059257829003601f168201915b505050505081526020016001820180546105c890614b58565b80601f01602080910402602001604051908101604052809291908181526020018280546105f490614b58565b80156106415780601f1061061657610100808354040283529160200191610641565b820191906000526020600020905b81548152906001019060200180831161062457829003601f168201915b505050505081526020016002820154815260200160038201548152602001600482015481525050905090565b60606000805461067c90614b58565b80601f01602080910402602001604051908101604052809291908181526020018280546106a890614b58565b80156106f55780601f106106ca576101008083540402835291602001916106f5565b820191906000526020600020905b8154815290600101906020018083116106d857829003601f168201915b5050505050905090565b600061070a8261228e565b610749576040517f08c379a0000000000000000000000000000000000000000000000000000000008152600401610740906146ac565b60405180910390fd5b6004600083815260200190815260200160002060009054906101000a900473ffffffffffffffffffffffffffffffffffffffff169050919050565b600061078f82610bc3565b90508073ffffffffffffffffffffffffffffffffffffffff168373ffffffffffffffffffffffffffffffffffffffff161415610800576040517f08c379a00000000000000000000000000000000000000000000000000000000081526004016107f7906146ec565b60405180910390fd5b8073ffffffffffffffffffffffffffffffffffffffff1661081f6122fa565b73ffffffffffffffffffffffffffffffffffffffff16148061084e575061084d816108486122fa565b611da5565b5b61088d576040517f08c379a00000000000000000000000000000000000000000000000000000000081526004016108849061462c565b60405180910390fd5b6108978383612302565b505050565b606060006108aa60106123bb565b67ffffffffffffffff8111156108c3576108c2614cf1565b5b6040519080825280602002602001820160405280156108fc57816020015b6108e9613598565b8152602001906001900390816108e15790505b5090506000600190505b61091060106123bb565b811015610b3b57600061092d8260106123cc90919063ffffffff16565b9050600061094582601061241790919063ffffffff16565b90506000600860008381526020019081526020016000206040518060e00160405290816000820154815260200160018201805461098190614b58565b80601f01602080910402602001604051908101604052809291908181526020018280546109ad90614b58565b80156109fa5780601f106109cf576101008083540402835291602001916109fa565b820191906000526020600020905b8154815290600101906020018083116109dd57829003601f168201915b50505050508152602001600282018054610a1390614b58565b80601f0160208091040260200160405190810160405280929190818152602001828054610a3f90614b58565b8015610a8c5780601f10610a6157610100808354040283529160200191610a8c565b820191906000526020600020905b815481529060010190602001808311610a6f57829003601f168201915b505050505081526020016003820154815260200160048201548152602001600582015481526020016006820160009054906101000a900460ff161515151581525050905060405180604001604052808473ffffffffffffffffffffffffffffffffffffffff1681526020018281525085600186610b099190614a6e565b81518110610b1a57610b19614cc2565b5b60200260200101819052505050508080610b3390614bbb565b915050610906565b508091505090565b610b54610b4e6122fa565b82612463565b610b93576040517f08c379a0000000000000000000000000000000000000000000000000000000008152600401610b8a9061470c565b60405180910390fd5b610b9e838383612541565b505050565b610bbe83838360405180602001604052806000815250611068565b505050565b6000806002600084815260200190815260200160002060009054906101000a900473ffffffffffffffffffffffffffffffffffffffff169050600073ffffffffffffffffffffffffffffffffffffffff168173ffffffffffffffffffffffffffffffffffffffff161415610c6c576040517f08c379a0000000000000000000000000000000000000000000000000000000008152600401610c639061466c565b60405180910390fd5b80915050919050565b60008073ffffffffffffffffffffffffffffffffffffffff168273ffffffffffffffffffffffffffffffffffffffff161415610ce6576040517f08c379a0000000000000000000000000000000000000000000000000000000008152600401610cdd9061464c565b60405180910390fd5b600360008373ffffffffffffffffffffffffffffffffffffffff1673ffffffffffffffffffffffffffffffffffffffff168152602001908152602001600020549050919050565b606060018054610d3c90614b58565b80601f0160208091040260200160405190810160405280929190818152602001828054610d6890614b58565b8015610db55780601f10610d8a57610100808354040283529160200191610db5565b820191906000526020600020905b815481529060010190602001808311610d9857829003601f168201915b5050505050905090565b6008602052806000526040600020600091509050806000015490806001018054610de890614b58565b80601f0160208091040260200160405190810160405280929190818152602001828054610e1490614b58565b8015610e615780601f10610e3657610100808354040283529160200191610e61565b820191906000526020600020905b815481529060010190602001808311610e4457829003601f168201915b505050505090806002018054610e7690614b58565b80601f0160208091040260200160405190810160405280929190818152602001828054610ea290614b58565b8015610eef5780601f10610ec457610100808354040283529160200191610eef565b820191906000526020600020905b815481529060010190602001808311610ed257829003601f168201915b5050505050908060030154908060040154908060050154908060060160009054906101000a900460ff16905087565b610f30610f296122fa565b83836127a8565b5050565b6009806000018054610f4590614b58565b80601f0160208091040260200160405190810160405280929190818152602001828054610f7190614b58565b8015610fbe5780601f10610f9357610100808354040283529160200191610fbe565b820191906000526020600020905b815481529060010190602001808311610fa157829003601f168201915b505050505090806001018054610fd390614b58565b80601f0160208091040260200160405190810160405280929190818152602001828054610fff90614b58565b801561104c5780601f106110215761010080835404028352916020019161104c565b820191906000526020600020905b81548152906001019060200180831161102f57829003601f168201915b5050505050908060020154908060030154908060040154905085565b6110796110736122fa565b83612463565b6110b8576040517f08c379a00000000000000000000000000000000000000000000000000000000081526004016110af9061470c565b60405180910390fd5b6110c484848484612915565b50505050565b60606006805480602002602001604051908101604052809291908181526020016000905b8282101561128757838290600052602060002090600702016040518060e00160405290816000820154815260200160018201805461112b90614b58565b80601f016020809104026020016040519081016040528092919081815260200182805461115790614b58565b80156111a45780601f10611179576101008083540402835291602001916111a4565b820191906000526020600020905b81548152906001019060200180831161118757829003601f168201915b505050505081526020016002820180546111bd90614b58565b80601f01602080910402602001604051908101604052809291908181526020018280546111e990614b58565b80156112365780601f1061120b57610100808354040283529160200191611236565b820191906000526020600020905b81548152906001019060200180831161121957829003601f168201915b505050505081526020016003820154815260200160048201548152602001600582015481526020016006820160009054906101000a900460ff161515151581525050815260200190600101906110ee565b50505050905090565b60006112a633601061241790919063ffffffff16565b90506000600860008381526020019081526020016000209050600015158160060160009054906101000a900460ff16151514611317576040517f08c379a000000000000000000000000000000000000000000000000000000000815260040161130e906146cc565b60405180910390fd5b600081600301541461135e576040517f08c379a00000000000000000000000000000000000000000000000000000000081526004016113559061474c565b60405180910390fd5b60006113786002836004015461297190919063ffffffff16565b905080826003018190555060018260060160006101000a81548160ff0219169083151502179055506113b86002836005015461298790919063ffffffff16565b82600501819055506114036040518060400160405280601f81526020017f506c617965722077617320726576697665642e204e6577202068703a20257300815250836003015461299d565b7fe1ff24a630d7a40f356578a0753fb1f4734a38b251662f69945d3b80643654e333848360405161143693929190614318565b60405180910390a1505050565b60606000600860008481526020019081526020016000206040518060e00160405290816000820154815260200160018201805461147f90614b58565b80601f01602080910402602001604051908101604052809291908181526020018280546114ab90614b58565b80156114f85780601f106114cd576101008083540402835291602001916114f8565b820191906000526020600020905b8154815290600101906020018083116114db57829003601f168201915b5050505050815260200160028201805461151190614b58565b80601f016020809104026020016040519081016040528092919081815260200182805461153d90614b58565b801561158a5780601f1061155f5761010080835404028352916020019161158a565b820191906000526020600020905b81548152906001019060200180831161156d57829003601f168201915b505050505081526020016003820154815260200160048201548152602001600582015481526020016006820160009054906101000a900460ff161515151581525050905060006115dd8260600151612a39565b905060006115ee8360800151612a39565b905060006115ff8460a00151612a39565b905060008460c00151611647576040518060400160405280600581526020017f66616c736500000000000000000000000000000000000000000000000000000081525061167e565b6040518060400160405280600481526020017f74727565000000000000000000000000000000000000000000000000000000008152505b905060006116c686602001516116938a612a39565b8860400151888888886040516020016116b297969594939291906141a9565b604051602081830303815290604052612b9a565b90506000816040516020016116db9190614266565b604051602081830303815290604052905080975050505050505050919050565b6117036135ce565b600061171933601061241790919063ffffffff16565b905060008111156118b157600860008281526020019081526020016000206040518060e00160405290816000820154815260200160018201805461175c90614b58565b80601f016020809104026020016040519081016040528092919081815260200182805461178890614b58565b80156117d55780601f106117aa576101008083540402835291602001916117d5565b820191906000526020600020905b8154815290600101906020018083116117b857829003601f168201915b505050505081526020016002820180546117ee90614b58565b80601f016020809104026020016040519081016040528092919081815260200182805461181a90614b58565b80156118675780601f1061183c57610100808354040283529160200191611867565b820191906000526020600020905b81548152906001019060200180831161184a57829003601f168201915b505050505081526020016003820154815260200160048201548152602001600582015481526020016006820160009054906101000a900460ff1615151515815250509150506118bf565b6118b96135ce565b80925050505b90565b60006118d833601061241790919063ffffffff16565b905060006008600083815260200190815260200160002090506119a96040518060600160405280603c8152602001615569603c913982600101805461191c90614b58565b80601f016020809104026020016040519081016040528092919081815260200182805461194890614b58565b80156119955780601f1061196a57610100808354040283529160200191611995565b820191906000526020600020905b81548152906001019060200180831161197857829003601f168201915b505050505083600301548460050154612d32565b611a816040518060400160405280601b81526020017f426f73732025732068617320257320485020616e642025732041440000000000815250600960000180546119f290614b58565b80601f0160208091040260200160405190810160405280929190818152602001828054611a1e90614b58565b8015611a6b5780601f10611a4057610100808354040283529160200191611a6b565b820191906000526020600020905b815481529060010190602001808311611a4e57829003601f168201915b5050505050600960020154600960040154612d32565b6000816003015411611ac8576040517f08c379a0000000000000000000000000000000000000000000000000000000008152600401611abf9061456c565b60405180910390fd5b600060096002015411611b10576040517f08c379a0000000000000000000000000000000000000000000000000000000008152600401611b079061472c565b60405180910390fd5b6064600f544244611b21919061498d565b611b2b919061498d565b611b359190614c04565b600f81905550611b7c6040518060400160405280601681526020017f52616e646f6d20232067656e6572617465643a20256400000000000000000000815250600f5461299d565b6000816005015490506005600f541015611c2257611bce6040518060400160405280600c81526020017f437269746963616c206869740000000000000000000000000000000000000000815250612dd4565b611be66002836005015461298790919063ffffffff16565b90507f736e649ac10ddde9d36c11408f533c1e13480e323b48d2620f3ce378f6a93ff53384604051611c199291906142ef565b60405180910390a15b806009600201541015611c3f576000600960020181905550611c5a565b80600960020154611c509190614a6e565b6009600201819055505b6005600f54118015611c6e57506014600f54105b15611cd257611c9460405180606001604052806036815260200161549d60369139612dd4565b7fa64d2f8ffab6c54b9290d9b531c77de16abac583d4916eeaa65c0c0fae482ed43384604051611cc59291906142ef565b60405180910390a1611d11565b60096004015482600301541015611cf25760008260030181905550611d10565b6009600401548260030154611d079190614a6e565b82600301819055505b5b611d386040518060600160405280602581526020016154786025913960096002015461299d565b611d5e60405180606001604052806028815260200161551360289139836003015461299d565b7f838ab28464562786a6c4ab2311964b82fa60bd9b14aa7e856af1f3f18d41a4146009600201548360030154604051611d98929190614848565b60405180910390a1505050565b6000600560008473ffffffffffffffffffffffffffffffffffffffff1673ffffffffffffffffffffffffffffffffffffffff16815260200190815260200160002060008373ffffffffffffffffffffffffffffffffffffffff1673ffffffffffffffffffffffffffffffffffffffff16815260200190815260200160002060009054906101000a900460ff16905092915050565b6000611e456007612e6d565b9050611e513382612e7b565b611e5b8183612e99565b60086000838152602001908152602001600020600082015181600001556020820151816001019080519060200190611e9492919061360d565b506040820151816002019080519060200190611eb192919061360d565b50606082015181600301556080820151816004015560a0820151816005015560c08201518160060160006101000a81548160ff021916908315150217905550905050611f166040518060600160405280602e815260200161553b602e913982846130a8565b611f2c33826010611f8b9092919063ffffffff16565b611f366007611f75565b7f4bc303fd457a97b4691b9af582ce71868a3d258638c8d4f8c60988a0f0bfb8cd338284604051611f6993929190614318565b60405180910390a15050565b6001816000016000828254019250508190555050565b8260030160008373ffffffffffffffffffffffffffffffffffffffff1673ffffffffffffffffffffffffffffffffffffffff16815260200190815260200160002060009054906101000a900460ff161561202a57808360010160008473ffffffffffffffffffffffffffffffffffffffff1673ffffffffffffffffffffffffffffffffffffffff1681526020019081526020016000208190555061217d565b60018360030160008473ffffffffffffffffffffffffffffffffffffffff1673ffffffffffffffffffffffffffffffffffffffff16815260200190815260200160002060006101000a81548160ff021916908315150217905550808360010160008473ffffffffffffffffffffffffffffffffffffffff1673ffffffffffffffffffffffffffffffffffffffff1681526020019081526020016000208190555082600001805490508360020160008473ffffffffffffffffffffffffffffffffffffffff1673ffffffffffffffffffffffffffffffffffffffff1681526020019081526020016000208190555082600001829080600181540180825580915050600190039060005260206000200160009091909190916101000a81548173ffffffffffffffffffffffffffffffffffffffff021916908373ffffffffffffffffffffffffffffffffffffffff1602179055505b505050565b61221e8484848460405160240161219c94939291906143d0565b6040516020818303038152906040527f8d142cdd000000000000000000000000000000000000000000000000000000007bffffffffffffffffffffffffffffffffffffffffffffffffffffffff19166020820180517bffffffffffffffffffffffffffffffffffffffffffffffffffffffff8381831617835250505050613147565b50505050565b60007f01ffc9a7000000000000000000000000000000000000000000000000000000007bffffffffffffffffffffffffffffffffffffffffffffffffffffffff1916827bffffffffffffffffffffffffffffffffffffffffffffffffffffffff1916149050919050565b60008073ffffffffffffffffffffffffffffffffffffffff166002600084815260200190815260200160002060009054906101000a900473ffffffffffffffffffffffffffffffffffffffff1673ffffffffffffffffffffffffffffffffffffffff1614159050919050565b600033905090565b816004600083815260200190815260200160002060006101000a81548173ffffffffffffffffffffffffffffffffffffffff021916908373ffffffffffffffffffffffffffffffffffffffff160217905550808273ffffffffffffffffffffffffffffffffffffffff1661237583610bc3565b73ffffffffffffffffffffffffffffffffffffffff167f8c5be1e5ebec7d5bd14f71427d1e84f3dd0314c0f7b2291e5b200ac8c7c3b92560405160405180910390a45050565b600081600001805490509050919050565b60008260000182815481106123e4576123e3614cc2565b5b9060005260206000200160009054906101000a900473ffffffffffffffffffffffffffffffffffffffff16905092915050565b60008260010160008373ffffffffffffffffffffffffffffffffffffffff1673ffffffffffffffffffffffffffffffffffffffff16815260200190815260200160002054905092915050565b600061246e8261228e565b6124ad576040517f08c379a00000000000000000000000000000000000000000000000000000000081526004016124a49061460c565b60405180910390fd5b60006124b883610bc3565b90508073ffffffffffffffffffffffffffffffffffffffff168473ffffffffffffffffffffffffffffffffffffffff16148061252757508373ffffffffffffffffffffffffffffffffffffffff1661250f846106ff565b73ffffffffffffffffffffffffffffffffffffffff16145b8061253857506125378185611da5565b5b91505092915050565b8273ffffffffffffffffffffffffffffffffffffffff1661256182610bc3565b73ffffffffffffffffffffffffffffffffffffffff16146125b7576040517f08c379a00000000000000000000000000000000000000000000000000000000081526004016125ae9061458c565b60405180910390fd5b600073ffffffffffffffffffffffffffffffffffffffff168273ffffffffffffffffffffffffffffffffffffffff161415612627576040517f08c379a000000000000000000000000000000000000000000000000000000000815260040161261e906145cc565b60405180910390fd5b612632838383613170565b61263d600082612302565b6001600360008573ffffffffffffffffffffffffffffffffffffffff1673ffffffffffffffffffffffffffffffffffffffff168152602001908152602001600020600082825461268d9190614a6e565b925050819055506001600360008473ffffffffffffffffffffffffffffffffffffffff1673ffffffffffffffffffffffffffffffffffffffff16815260200190815260200160002060008282546126e4919061498d565b92505081905550816002600083815260200190815260200160002060006101000a81548173ffffffffffffffffffffffffffffffffffffffff021916908373ffffffffffffffffffffffffffffffffffffffff160217905550808273ffffffffffffffffffffffffffffffffffffffff168473ffffffffffffffffffffffffffffffffffffffff167fddf252ad1be2c89b69c2b068fc378daa952ba7f163c4a11628f55a4df523b3ef60405160405180910390a46127a3838383613175565b505050565b8173ffffffffffffffffffffffffffffffffffffffff168373ffffffffffffffffffffffffffffffffffffffff161415612817576040517f08c379a000000000000000000000000000000000000000000000000000000000815260040161280e906145ec565b60405180910390fd5b80600560008573ffffffffffffffffffffffffffffffffffffffff1673ffffffffffffffffffffffffffffffffffffffff16815260200190815260200160002060008473ffffffffffffffffffffffffffffffffffffffff1673ffffffffffffffffffffffffffffffffffffffff16815260200190815260200160002060006101000a81548160ff0219169083151502179055508173ffffffffffffffffffffffffffffffffffffffff168373ffffffffffffffffffffffffffffffffffffffff167f17307eab39ab6107e8899845ad3d59bd9653f200f220920489ca2b5937696c31836040516129089190614393565b60405180910390a3505050565b612920848484612541565b61292c8484848461317a565b61296b576040517f08c379a00000000000000000000000000000000000000000000000000000000081526004016129629061454c565b60405180910390fd5b50505050565b6000818361297f91906149e3565b905092915050565b600081836129959190614a14565b905092915050565b612a3582826040516024016129b39291906144de565b6040516020818303038152906040527f9710a9d0000000000000000000000000000000000000000000000000000000007bffffffffffffffffffffffffffffffffffffffffffffffffffffffff19166020820180517bffffffffffffffffffffffffffffffffffffffffffffffffffffffff8381831617835250505050613147565b5050565b60606000821415612a81576040518060400160405280600181526020017f30000000000000000000000000000000000000000000000000000000000000008152509050612b95565b600082905060005b60008214612ab3578080612a9c90614bbb565b915050600a82612aac91906149e3565b9150612a89565b60008167ffffffffffffffff811115612acf57612ace614cf1565b5b6040519080825280601f01601f191660200182016040528015612b015781602001600182028036833780820191505090505b5090505b60008514612b8e57600182612b1a9190614a6e565b9150600a85612b299190614c04565b6030612b35919061498d565b60f81b818381518110612b4b57612b4a614cc2565b5b60200101907effffffffffffffffffffffffffffffffffffffffffffffffffffffffffffff1916908160001a905350600a85612b8791906149e3565b9450612b05565b8093505050505b919050565b60606000825190506000811415612bc35760405180602001604052806000815250915050612d2d565b60006003600283612bd4919061498d565b612bde91906149e3565b6004612bea9190614a14565b90506000602082612bfb919061498d565b67ffffffffffffffff811115612c1457612c13614cf1565b5b6040519080825280601f01601f191660200182016040528015612c465781602001600182028036833780820191505090505b50905060006040518060600160405280604081526020016154d3604091399050600181016020830160005b86811015612cea5760038101905062ffffff818a015116603f8160121c168401518060081b905060ff603f83600c1c1686015116810190508060081b905060ff603f8360061c1686015116810190508060081b905060ff603f831686015116810190508060e01b90508084526004840193505050612c71565b506003860660018114612d045760028114612d1457612d1f565b613d3d60f01b6002830352612d1f565b603d60f81b60018303525b508484525050819450505050505b919050565b612dce84848484604051602401612d4c949392919061442a565b6040516020818303038152906040527fd5cf17d0000000000000000000000000000000000000000000000000000000007bffffffffffffffffffffffffffffffffffffffffffffffffffffffff19166020820180517bffffffffffffffffffffffffffffffffffffffffffffffffffffffff8381831617835250505050613147565b50505050565b612e6a81604051602401612de891906143ae565b6040516020818303038152906040527f41304fac000000000000000000000000000000000000000000000000000000007bffffffffffffffffffffffffffffffffffffffffffffffffffffffff19166020820180517bffffffffffffffffffffffffffffffffffffffffffffffffffffffff8381831617835250505050613147565b50565b600081600001549050919050565b612e95828260405180602001604052806000815250613311565b5050565b612ea16135ce565b6040518060e0016040528084815260200160068481548110612ec657612ec5614cc2565b5b90600052602060002090600702016001018054612ee290614b58565b80601f0160208091040260200160405190810160405280929190818152602001828054612f0e90614b58565b8015612f5b5780601f10612f3057610100808354040283529160200191612f5b565b820191906000526020600020905b815481529060010190602001808311612f3e57829003601f168201915b5050505050815260200160068481548110612f7957612f78614cc2565b5b90600052602060002090600702016002018054612f9590614b58565b80601f0160208091040260200160405190810160405280929190818152602001828054612fc190614b58565b801561300e5780601f10612fe35761010080835404028352916020019161300e565b820191906000526020600020905b815481529060010190602001808311612ff157829003601f168201915b505050505081526020016006848154811061302c5761302b614cc2565b5b90600052602060002090600702016003015481526020016006848154811061305757613056614cc2565b5b90600052602060002090600702016004015481526020016006848154811061308257613081614cc2565b5b906000526020600020906007020160050154815260200160001515815250905092915050565b6131428383836040516024016130c09392919061450e565b6040516020818303038152906040527f969cdd03000000000000000000000000000000000000000000000000000000007bffffffffffffffffffffffffffffffffffffffffffffffffffffffff19166020820180517bffffffffffffffffffffffffffffffffffffffffffffffffffffffff8381831617835250505050613147565b505050565b60008151905060006a636f6e736f6c652e6c6f679050602083016000808483855afa5050505050565b505050565b505050565b600061319b8473ffffffffffffffffffffffffffffffffffffffff1661336c565b15613304578373ffffffffffffffffffffffffffffffffffffffff1663150b7a026131c46122fa565b8786866040518563ffffffff1660e01b81526004016131e694939291906142a3565b602060405180830381600087803b15801561320057600080fd5b505af192505050801561323157506040513d601f19601f8201168201806040525081019061322e9190613979565b60015b6132b4573d8060008114613261576040519150601f19603f3d011682016040523d82523d6000602084013e613266565b606091505b506000815114156132ac576040517f08c379a00000000000000000000000000000000000000000000000000000000081526004016132a39061454c565b60405180910390fd5b805181602001fd5b63150b7a0260e01b7bffffffffffffffffffffffffffffffffffffffffffffffffffffffff1916817bffffffffffffffffffffffffffffffffffffffffffffffffffffffff191614915050613309565b600190505b949350505050565b61331b838361338f565b613328600084848461317a565b613367576040517f08c379a000000000000000000000000000000000000000000000000000000000815260040161335e9061454c565b60405180910390fd5b505050565b6000808273ffffffffffffffffffffffffffffffffffffffff163b119050919050565b600073ffffffffffffffffffffffffffffffffffffffff168273ffffffffffffffffffffffffffffffffffffffff1614156133ff576040517f08c379a00000000000000000000000000000000000000000000000000000000081526004016133f69061468c565b60405180910390fd5b6134088161228e565b15613448576040517f08c379a000000000000000000000000000000000000000000000000000000000815260040161343f906145ac565b60405180910390fd5b61345460008383613170565b6001600360008473ffffffffffffffffffffffffffffffffffffffff1673ffffffffffffffffffffffffffffffffffffffff16815260200190815260200160002060008282546134a4919061498d565b92505081905550816002600083815260200190815260200160002060006101000a81548173ffffffffffffffffffffffffffffffffffffffff021916908373ffffffffffffffffffffffffffffffffffffffff160217905550808273ffffffffffffffffffffffffffffffffffffffff16600073ffffffffffffffffffffffffffffffffffffffff167fddf252ad1be2c89b69c2b068fc378daa952ba7f163c4a11628f55a4df523b3ef60405160405180910390a461356560008383613175565b5050565b6040518060a0016040528060608152602001606081526020016000815260200160008152602001600081525090565b6040518060400160405280600073ffffffffffffffffffffffffffffffffffffffff1681526020016135c86135ce565b81525090565b6040518060e001604052806000815260200160608152602001606081526020016000815260200160008152602001600081526020016000151581525090565b82805461361990614b58565b90600052602060002090601f01602090048101928261363b5760008555613682565b82601f1061365457805160ff1916838001178555613682565b82800160010185558215613682579182015b82811115613681578251825591602001919060010190613666565b5b50905061368f9190613693565b5090565b5b808211156136ac576000816000905550600101613694565b5090565b60006136c36136be84614896565b614871565b9050828152602081018484840111156136df576136de614d25565b5b6136ea848285614b16565b509392505050565b6000813590506137018161541b565b92915050565b60008135905061371681615432565b92915050565b60008135905061372b81615449565b92915050565b60008151905061374081615449565b92915050565b600082601f83011261375b5761375a614d20565b5b813561376b8482602086016136b0565b91505092915050565b60008135905061378381615460565b92915050565b60006020828403121561379f5761379e614d2f565b5b60006137ad848285016136f2565b91505092915050565b600080604083850312156137cd576137cc614d2f565b5b60006137db858286016136f2565b92505060206137ec858286016136f2565b9150509250929050565b60008060006060848603121561380f5761380e614d2f565b5b600061381d868287016136f2565b935050602061382e868287016136f2565b925050604061383f86828701613774565b9150509250925092565b6000806000806080858703121561386357613862614d2f565b5b6000613871878288016136f2565b9450506020613882878288016136f2565b935050604061389387828801613774565b925050606085013567ffffffffffffffff8111156138b4576138b3614d2a565b5b6138c087828801613746565b91505092959194509250565b600080604083850312156138e3576138e2614d2f565b5b60006138f1858286016136f2565b925050602061390285828601613707565b9150509250929050565b6000806040838503121561392357613922614d2f565b5b6000613931858286016136f2565b925050602061394285828601613774565b9150509250929050565b60006020828403121561396257613961614d2f565b5b60006139708482850161371c565b91505092915050565b60006020828403121561398f5761398e614d2f565b5b600061399d84828501613731565b91505092915050565b6000602082840312156139bc576139bb614d2f565b5b60006139ca84828501613774565b91505092915050565b60006139df8383614008565b905092915050565b60006139f3838361414e565b905092915050565b613a0481614aa2565b82525050565b613a1381614aa2565b82525050565b6000613a24826148e7565b613a2e818561492d565b935083602082028501613a40856148c7565b8060005b85811015613a7c5784840389528151613a5d85826139d3565b9450613a6883614913565b925060208a01995050600181019050613a44565b50829750879550505050505092915050565b6000613a99826148f2565b613aa3818561493e565b935083602082028501613ab5856148d7565b8060005b85811015613af15784840389528151613ad285826139e7565b9450613add83614920565b925060208a01995050600181019050613ab9565b50829750879550505050505092915050565b613b0c81614ab4565b82525050565b613b1b81614ab4565b82525050565b6000613b2c826148fd565b613b36818561494f565b9350613b46818560208601614b25565b613b4f81614d34565b840191505092915050565b6000613b6582614908565b613b6f8185614960565b9350613b7f818560208601614b25565b613b8881614d34565b840191505092915050565b6000613b9e82614908565b613ba88185614971565b9350613bb8818560208601614b25565b613bc181614d34565b840191505092915050565b6000613bd782614908565b613be18185614982565b9350613bf1818560208601614b25565b80840191505092915050565b6000613c0a600b83614982565b9150613c1582614d45565b600b82019050919050565b6000613c2d603283614971565b9150613c3882614d6e565b604082019050919050565b6000613c50601a83614971565b9150613c5b82614dbd565b602082019050919050565b6000613c73602583614971565b9150613c7e82614de6565b604082019050919050565b6000613c96601c83614971565b9150613ca182614e35565b602082019050919050565b6000613cb9600e83614982565b9150613cc482614e5e565b600e82019050919050565b6000613cdc602483614971565b9150613ce782614e87565b604082019050919050565b6000613cff601983614971565b9150613d0a82614ed6565b602082019050919050565b6000613d22602c83614971565b9150613d2d82614eff565b604082019050919050565b6000613d45603883614971565b9150613d5082614f4e565b604082019050919050565b6000613d68602783614982565b9150613d7382614f9d565b602782019050919050565b6000613d8b602a83614971565b9150613d9682614fec565b604082019050919050565b6000613dae602983614971565b9150613db98261503b565b604082019050919050565b6000613dd1602083614971565b9150613ddc8261508a565b602082019050919050565b6000613df4600383614982565b9150613dff826150b3565b600382019050919050565b6000613e17602c83614971565b9150613e22826150dc565b604082019050919050565b6000613e3a602783614971565b9150613e458261512b565b604082019050919050565b6000613e5d600a83614982565b9150613e688261517a565b600a82019050919050565b6000613e80602183614971565b9150613e8b826151a3565b604082019050919050565b6000613ea3601d83614982565b9150613eae826151f2565b601d82019050919050565b6000613ec6603183614971565b9150613ed18261521b565b604082019050919050565b6000613ee9607983614982565b9150613ef48261526a565b607982019050919050565b6000613f0c603d83614982565b9150613f1782615305565b603d82019050919050565b6000613f2f602d83614982565b9150613f3a82615354565b602d82019050919050565b6000613f52602183614971565b9150613f5d826153a3565b604082019050919050565b6000613f75601883614971565b9150613f80826153f2565b602082019050919050565b600060a0830160008301518482036000860152613fa88282613b5a565b91505060208301518482036020860152613fc28282613b5a565b9150506040830151613fd7604086018261418b565b506060830151613fea606086018261418b565b506080830151613ffd608086018261418b565b508091505092915050565b600060e083016000830151614020600086018261418b565b50602083015184820360208601526140388282613b5a565b915050604083015184820360408601526140528282613b5a565b9150506060830151614067606086018261418b565b50608083015161407a608086018261418b565b5060a083015161408d60a086018261418b565b5060c08301516140a060c0860182613b03565b508091505092915050565b600060e0830160008301516140c3600086018261418b565b50602083015184820360208601526140db8282613b5a565b915050604083015184820360408601526140f58282613b5a565b915050606083015161410a606086018261418b565b50608083015161411d608086018261418b565b5060a083015161413060a086018261418b565b5060c083015161414360c0860182613b03565b508091505092915050565b600060408301600083015161416660008601826139fb565b506020830151848203602086015261417e8282614008565b9150508091505092915050565b61419481614b0c565b82525050565b6141a381614b0c565b82525050565b60006141b482613e50565b91506141c0828a613bcc565b91506141cb82613bfd565b91506141d78289613bcc565b91506141e282613edc565b91506141ee8288613bcc565b91506141f982613eff565b91506142058287613bcc565b915061421082613cac565b915061421c8286613bcc565b915061422782613f22565b91506142338285613bcc565b915061423e82613d5b565b915061424a8284613bcc565b915061425582613de7565b915081905098975050505050505050565b600061427182613e96565b915061427d8284613bcc565b915081905092915050565b600060208201905061429d6000830184613a0a565b92915050565b60006080820190506142b86000830187613a0a565b6142c56020830186613a0a565b6142d2604083018561419a565b81810360608301526142e48184613b21565b905095945050505050565b60006040820190506143046000830185613a0a565b614311602083018461419a565b9392505050565b600060608201905061432d6000830186613a0a565b61433a602083018561419a565b614347604083018461419a565b949350505050565b600060208201905081810360008301526143698184613a19565b905092915050565b6000602082019050818103600083015261438b8184613a8e565b905092915050565b60006020820190506143a86000830184613b12565b92915050565b600060208201905081810360008301526143c88184613b93565b905092915050565b600060808201905081810360008301526143ea8187613b93565b905081810360208301526143fe8186613b93565b905061440d604083018561419a565b818103606083015261441f8184613b93565b905095945050505050565b600060808201905081810360008301526144448187613b93565b905081810360208301526144588186613b93565b9050614467604083018561419a565b614474606083018461419a565b95945050505050565b600060a08201905081810360008301526144978188613b93565b905081810360208301526144ab8187613b93565b90506144ba604083018661419a565b6144c7606083018561419a565b6144d4608083018461419a565b9695505050505050565b600060408201905081810360008301526144f88185613b93565b9050614507602083018461419a565b9392505050565b600060608201905081810360008301526145288186613b93565b9050614537602083018561419a565b614544604083018461419a565b949350505050565b6000602082019050818103600083015261456581613c20565b9050919050565b6000602082019050818103600083015261458581613c43565b9050919050565b600060208201905081810360008301526145a581613c66565b9050919050565b600060208201905081810360008301526145c581613c89565b9050919050565b600060208201905081810360008301526145e581613ccf565b9050919050565b6000602082019050818103600083015261460581613cf2565b9050919050565b6000602082019050818103600083015261462581613d15565b9050919050565b6000602082019050818103600083015261464581613d38565b9050919050565b6000602082019050818103600083015261466581613d7e565b9050919050565b6000602082019050818103600083015261468581613da1565b9050919050565b600060208201905081810360008301526146a581613dc4565b9050919050565b600060208201905081810360008301526146c581613e0a565b9050919050565b600060208201905081810360008301526146e581613e2d565b9050919050565b6000602082019050818103600083015261470581613e73565b9050919050565b6000602082019050818103600083015261472581613eb9565b9050919050565b6000602082019050818103600083015261474581613f45565b9050919050565b6000602082019050818103600083015261476581613f68565b9050919050565b600060208201905081810360008301526147868184613f8b565b905092915050565b600060208201905081810360008301526147a881846140ab565b905092915050565b60006020820190506147c5600083018461419a565b92915050565b600060e0820190506147e0600083018a61419a565b81810360208301526147f28189613b93565b905081810360408301526148068188613b93565b9050614815606083018761419a565b614822608083018661419a565b61482f60a083018561419a565b61483c60c0830184613b12565b98975050505050505050565b600060408201905061485d600083018561419a565b61486a602083018461419a565b9392505050565b600061487b61488c565b90506148878282614b8a565b919050565b6000604051905090565b600067ffffffffffffffff8211156148b1576148b0614cf1565b5b6148ba82614d34565b9050602081019050919050565b6000819050602082019050919050565b6000819050602082019050919050565b600081519050919050565b600081519050919050565b600081519050919050565b600081519050919050565b6000602082019050919050565b6000602082019050919050565b600082825260208201905092915050565b600082825260208201905092915050565b600082825260208201905092915050565b600082825260208201905092915050565b600082825260208201905092915050565b600081905092915050565b600061499882614b0c565b91506149a383614b0c565b9250827fffffffffffffffffffffffffffffffffffffffffffffffffffffffffffffffff038211156149d8576149d7614c35565b5b828201905092915050565b60006149ee82614b0c565b91506149f983614b0c565b925082614a0957614a08614c64565b5b828204905092915050565b6000614a1f82614b0c565b9150614a2a83614b0c565b9250817fffffffffffffffffffffffffffffffffffffffffffffffffffffffffffffffff0483118215151615614a6357614a62614c35565b5b828202905092915050565b6000614a7982614b0c565b9150614a8483614b0c565b925082821015614a9757614a96614c35565b5b828203905092915050565b6000614aad82614aec565b9050919050565b60008115159050919050565b60007fffffffff0000000000000000000000000000000000000000000000000000000082169050919050565b600073ffffffffffffffffffffffffffffffffffffffff82169050919050565b6000819050919050565b82818337600083830152505050565b60005b83811015614b43578082015181840152602081019050614b28565b83811115614b52576000848401525b50505050565b60006002820490506001821680614b7057607f821691505b60208210811415614b8457614b83614c93565b5b50919050565b614b9382614d34565b810181811067ffffffffffffffff82111715614bb257614bb1614cf1565b5b80604052505050565b6000614bc682614b0c565b91507fffffffffffffffffffffffffffffffffffffffffffffffffffffffffffffffff821415614bf957614bf8614c35565b5b600182019050919050565b6000614c0f82614b0c565b9150614c1a83614b0c565b925082614c2a57614c29614c64565b5b828206905092915050565b7f4e487b7100000000000000000000000000000000000000000000000000000000600052601160045260246000fd5b7f4e487b7100000000000000000000000000000000000000000000000000000000600052601260045260246000fd5b7f4e487b7100000000000000000000000000000000000000000000000000000000600052602260045260246000fd5b7f4e487b7100000000000000000000000000000000000000000000000000000000600052603260045260246000fd5b7f4e487b7100000000000000000000000000000000000000000000000000000000600052604160045260246000fd5b600080fd5b600080fd5b600080fd5b600080fd5b6000601f19601f8301169050919050565b7f202d2d204e465420233a20000000000000000000000000000000000000000000600082015250565b7f4552433732313a207472616e7366657220746f206e6f6e20455243373231526560008201527f63656976657220696d706c656d656e7465720000000000000000000000000000602082015250565b7f4572726f723a20596f7572206865726f20697320646561746821000000000000600082015250565b7f4552433732313a207472616e736665722066726f6d20696e636f72726563742060008201527f6f776e6572000000000000000000000000000000000000000000000000000000602082015250565b7f4552433732313a20746f6b656e20616c7265616479206d696e74656400000000600082015250565b7f2c20226d61785f76616c7565223a000000000000000000000000000000000000600082015250565b7f4552433732313a207472616e7366657220746f20746865207a65726f2061646460008201527f7265737300000000000000000000000000000000000000000000000000000000602082015250565b7f4552433732313a20617070726f766520746f2063616c6c657200000000000000600082015250565b7f4552433732313a206f70657261746f7220717565727920666f72206e6f6e657860008201527f697374656e7420746f6b656e0000000000000000000000000000000000000000602082015250565b7f4552433732313a20617070726f76652063616c6c6572206973206e6f74206f7760008201527f6e6572206e6f7220617070726f76656420666f7220616c6c0000000000000000602082015250565b7f7d2c207b202274726169745f74797065223a202252657669766564222c20227660008201527f616c7565223a2000000000000000000000000000000000000000000000000000602082015250565b7f4552433732313a2062616c616e636520717565727920666f7220746865207a6560008201527f726f206164647265737300000000000000000000000000000000000000000000602082015250565b7f4552433732313a206f776e657220717565727920666f72206e6f6e657869737460008201527f656e7420746f6b656e0000000000000000000000000000000000000000000000602082015250565b7f4552433732313a206d696e7420746f20746865207a65726f2061646472657373600082015250565b7f7d5d7d0000000000000000000000000000000000000000000000000000000000600082015250565b7f4552433732313a20617070726f76656420717565727920666f72206e6f6e657860008201527f697374656e7420746f6b656e0000000000000000000000000000000000000000602082015250565b7f596f75206f6e6c792063616e2072657669766520796f7572206865726f206f6e60008201527f652074696d652100000000000000000000000000000000000000000000000000602082015250565b7f7b226e616d65223a202200000000000000000000000000000000000000000000600082015250565b7f4552433732313a20617070726f76616c20746f2063757272656e74206f776e6560008201527f7200000000000000000000000000000000000000000000000000000000000000602082015250565b7f646174613a6170706c69636174696f6e2f6a736f6e3b6261736536342c000000600082015250565b7f4552433732313a207472616e736665722063616c6c6572206973206e6f74206f60008201527f776e6572206e6f7220617070726f766564000000000000000000000000000000602082015250565b7f222c20226465736372697074696f6e223a20225468697320697320616e204e4660008201527f542074686174206c6574732070656f706c6520706c617920696e20746865206760208201527f616d65204d65746176657273652047616d65206f66205468726f6e657320486560408201527f726f657321222c2022696d616765223a2022697066733a2f2f00000000000000606082015250565b7f222c202261747472696275746573223a205b207b202274726169745f7479706560008201527f223a20224865616c746820506f696e7473222c202276616c7565223a20000000602082015250565b7f7d2c207b202274726169745f74797065223a202241747461636b2044616d616760008201527f65222c202276616c7565223a2000000000000000000000000000000000000000602082015250565b7f4572726f723a2054686520426f737320616c726561647920646566656174656460008201527f2100000000000000000000000000000000000000000000000000000000000000602082015250565b7f546865206865726f2068617320746f2062652044656164210000000000000000600082015250565b61542481614aa2565b811461542f57600080fd5b50565b61543b81614ab4565b811461544657600080fd5b50565b61545281614ac0565b811461545d57600080fd5b50565b61546981614b0c565b811461547457600080fd5b5056fe506c617965722061747461636b656420626f73732e204e657720626f73732068703a202573626f737327732061747461636b20276d69737365732720616e642074686520706c6179657220676574732061776179206c75636b79214142434445464748494a4b4c4d4e4f505152535455565758595a6162636465666768696a6b6c6d6e6f707172737475767778797a303132333435363738392b2f426f73732061747461636b656420706c617965722e204e657720706c617965722068703a2025730a4d696e746564204e465420772f20746f6b656e496420257320616e6420636861726163746572496e6465782025730a506c6179657220772f206368617261637465722025732061626f757420746f2061747461636b2e2048617320257320485020616e64202573204144a2646970667358221220b9c8efa12b3f2b475684207f0659a907cff45237044f0e30015a4b89f1c7b66064736f6c63430008070033446f6e6520696e697469616c697a696e6720257320772f2048502025732c20696d67202573",
  "linkReferences": {},
  "deployedLinkReferences": {}
}